:020000020000FC
:100000000C9405000C94040018950C94070000E073
:10001000D02E0D2D003011F40C940900013011F494
:100020000C940900023011F40C9409000C9409009E
:10003000FFCF0F921F922F923F924F925F926F923B
:100040007F928F928F92AF92BF92CF92DF92EF9278
:10005000FF920F931F932F933F934F935F936F9351
:100060007F938F939F93AF93BF93CF93DF93EF9340
:10007000FF930FB70F939FE08CE90197F1F70F9172
:100080000FBFFF91EF91DF91CF91BF91AF919F9102
:100090008F917F916F915F914F913F912F911F9120
:1000A0000F91FF90EF90DF90CF90BF90AF908F9027
:1000B0008F907F906F905F904F903F902F901F9008
:1000C0000F900895B6DFB5DFB4DFB3DFB2DF089578
:1000D000F9DFF8DFF7DFF6DF0895FADFF9DFF8DFA1
:1000E000F7DFF6DF0895F9DFF8DFF7DFF6DFF5DF9A
:1000F000089501BB9EDF169A9CDF16989ADF08953B
:1001000001BB179A96DF169A94DF169892DF17981C
:1001100008950F93002700BB01BB159A8ADF169A3A
:1001200088DF0FB1169807FDF9CF15980FEF00BBC8
:040130000F9108958E
:00000001FF
